:040000000DEF00F010
:04000800BDEF22F036
:06001800FF00E9EF28F0F3
:1026000000494E46494E49545900696E66696E69E3
:102610007479004E414E00696E66006E616E002551
:0326200075000042
:102624001C501D10D8B419EF13F01BEF13F02BEF4F
:1026340013F0610070F4D9F4610074F4DAF4610009
:1026440068F4DEF461006CF4DDF42BEF13F01A4A45
:102654001B2A010E346E610068F4D9F461006CF435
:10266400DAF4200EDE18D8B43AEF13F03DEF13F08D
:10267400010E3EEF13F0000E396E3A6A39503A10EB
:10268400D8A447EF13F049EF13F06DEF13F0F70EF2
:102694001E6EFF0E1F6E610068F4D9F461006CF4C5
:1026A400DAF4DF50206E2050396E3A6A39C521F5CC
:1026B4003AC522F51E5021261F502222225009E13C
:1026C400050E215CD8A069EF13F06BEF13F06DEFEA
:1026D40013F0000E346E34C524F5256A24502510F9
:1026E400D8A477EF13F079EF13F029EF13F0000E6D
:1026F400366E2D0E39183A10D8A483EF13F085EFF7
:1027040013F08BEF13F0010E366E1A4A1B2A97EF63
:1027140013F02B0E39183A10D8A493EF13F095EF59
:1027240013F097EF13F087EF13F0000E3F6E9CEF5A
:1027340013F03F2A3F501A24D96E000E1B20DA6E84
:10274400DF50D8B4A8EF13F0AAEF13F0E0EF13F0C2
:102754003F501A24D96E000E1B20DA6EDF501E6E15
:102764000A0E3F24F66EF76A260EF722F86A000E68
:10277400F8220800F5501E18D8B4C3EF13F0C5EFC3
:1027840013F09BEF13F03F501A24D96E000E1B2058
:10279400DA6EDF501E6E010E3F24F66EF76A260EC7
:1027A400F722F86A000EF8220800F5501E18D8B473
:1027B400DEEF13F0E0EF13F09BEF13F0020E3F6433
:1027C400E6EF13F0E8EF13F018EF14F0000E3B6E91
:1027D400000E3C6E800E3D6E7F0E3E6E1C501D1032
:1027E400D8B4F7EF13F0F9EF13F0DDEF1BF0080E98
:1027F4003F18D8B400EF14F002EF14F004EF14F013
:10280400030E3F6E3F501A241E6E000E1B201F6ED7
:10281400610070F4D9F4610074F4DAF4610078F4BE
:10282400DEF461007CF4DDF4DDEF1BF0000E3F6E9E
:102834001DEF14F03F2A3F501A24D96E000E1B20BE
:10284400DA6EDF50D8B429EF14F02BEF14F061EFF7
:1028540014F03F501A24D96E000E1B20DA6EDF509C
:102864001E6E1B0E3F24F66EF76A260EF722F86AD8
:10287400000EF8220800F5501E18D8B444EF14F0E6
:1028840046EF14F01CEF14F03F501A24D96E000EDA
:102894001B20DA6EDF501E6E130E3F24F66EF76AAD
:1028A400260EF722F86A000EF8220800F5501E18CA
:1028B400D8B45FEF14F061EF14F01CEF14F0030EC2
:1028C4003F18D8A468EF14F06AEF14F0DEEF14F0A8
:1028D400160E016E260E026EE7EC29F001C53BF5DB
:1028E40002C53CF503C53DF504C53EF51C501D105D
:1028F400D8B47FEF14F081EF14F0DDEF1BF03F50FC
:102904001A26000E1B22610068F4D9F461006CF4ED
:10291400DAF4280EDE18D8A492EF14F094EF14F031
:10292400D0EF14F0000E3F6E99EF14F03F2A3F50A1
:102934001A24D96E000E1B20DA6EDF50D8B4A5EF2E
:1029440014F0A7EF14F0B6EF14F03F501A24D96E28
:10295400000E1B20DA6E290EDE18D8A4B4EF14F092
:10296400B6EF14F098EF14F03F501A24D96E000E0D
:102974001B20DA6E290EDE18D8A4C3EF14F0C5EFBD
:1029840014F0D0EF14F03F501E6E1F6A010E1E2685
:10299400000E1F221E501A261F501B22610070F4C5
:1029A400D9F4610074F4DAF4610068F4DEF46100CF
:1029B4006CF4DDF4DDEF1BF0000E3A6E000E396EA0
:1029C400000E3B6E000E3C6E000E3D6E000E3E6E21
:1029D400000E386E000E376E000E3F6EF3EF14F0EB
:1029E4003F2A3F501A24D96E000E1B20DA6E300E97
:1029F400DE18D8B400EF15F002EF15F0F2EF14F082
:102A04003F50D8B408EF15F00AEF15F0A5EF18F011
:102A14003F501A24D96E000E1B20DA6E780EDE1891
:102A2400D8B417EF15F019EF15F028EF15F03F5053
:102A34001A24D96E000E1B20DA6E580EDE18D8A4A4
:102A440026EF15F028EF15F0A5EF18F03F501E6E95
:102A54001F6A010E1E26000E1F221E501A261F502A
:102A64001B22000E3F6E38EF15F03F2A3F501A2408
:102A7400D96E000E1B20DA6E300EDE18D8B445EF86
:102A840015F047EF15F037EF15F0000E3F6E3F508D
:102A94001A24D96E000E1B20DA6E700EDE18D8B41C
:102AA40056EF15F058EF15F0E4EF16F03F501A24E6
:102AB400D96E000E1B20DA6E500EDE18D8A465EF16
:102AC40015F067EF15F069EF15F0E4EF16F03F50DD
:102AD4001A24D96E000E1B20DA6E2E0EDE18D8A42E
:102AE40076EF15F078EF15F07CEF15F036883F2A75
:102AF400E4EF16F03F501A24D96E000E1B20DA6E54
:102B0400DF501E6E1E50016E026A4EEC27F001501B
:102B14000210D8B490EF15F092EF15F00DEF16F007
:102B2400000E356ED00E1E6EFF0E1F6E3F501A241F
:102B3400D96E000E1B20DA6EDF50206E216A1E5003
:102B440020261F50212221500AE10A0E205CD8A021
:102B5400AEEF15F0B1EF15F0010EB2EF15F0000E67
:102B6400266E276A26502710D8B4BBEF15F0BDEFA8
:102B740015F0C8EF15F03F501A24D96E000E1B2033
:102B8400DA6EDF50D00F356ED8EF15F03F501A24AF
:102B9400D96E000E1B20DA6EDF501E6E1E50076EBB
:102BA400086A20EC28F00750C90F356E3ABEE6EFEC
:102BB40015F03A5007E1080E395CD8B0E4EF15F08F
:102BC400E6EF15F005EF16F0395007081E6ED890A1
:102BD4001E36D8901E3635C51FF5206A216A226A32
:102BE4001E2AFAEF15F0D8901F36203621362236E9
:102BF4001E2EF5EF15F01F503B1220503C122150B1
:102C04003D1222503E12394A3A2A040E3726000E4B
:102C1400382217EF16F0000E1A6E000E1B6E000E0F
:102C24001C6E000E1D6EFEEF1BF03F2A49EF15F0DF
:102C34003F501A24D96E000E1B20DA6E700EDE1877
:102C4400D8B427EF16F029EF16F0EBEF16F03F504B
:102C54001A24D96E000E1B20DA6E500EDE18D8A48A
:102C640036EF16F038EF16F03AEF16F0EBEF16F0F9
:102C74003F501A24D96E000E1B20DA6E300EDE1877
:102C8400D8A447EF16F049EF16F058EF16F0395074
:102C94003A10D8A450EF16F052EF16F058EF16F091
:102CA400FC0E3726FF0E3822E3EF16F03F501A24AD
:102CB400D96E000E1B20DA6EDF501E6E1E50016EA0
:102CC400026A4EEC27F001500210D8B46CEF16F0F3
:102CD4006EEF16F0E3EF16F0000E356ED00E1E6E9A
:102CE400FF0E1F6E3F501A24D96E000E1B20DA6EA1
:102CF400DF50206E216A1E5020261F5021222150B1
:102D04000AE10A0E205CD8A08AEF16F08DEF16F0C7
:102D1400010E8EEF16F0000E286E296A2850291035
:102D2400D8B497EF16F099EF16F0A4EF16F03F50D1
:102D34001A24D96E000E1B20DA6EDF50D00F356EC8
:102D4400B4EF16F03F501A24D96E000E1B20DA6E31
:102D5400DF501E6E1E50076E086A20EC28F00750E4
:102D6400C90F356E3ABEC2EF16F03A5007E1080EAD
:102D7400395CD8B0C0EF16F0C2EF16F0E1EF16F0F0
:102D8400395007081E6ED8901E36D8901E3635C5A9
:102D94001FF5206A216A226A1E2AD6EF16F0D890FF
:102DA4001F362036213622361E2ED1EF16F01F5044
:102DB4003B1220503C1221503D1222503E12394AFF
:102DC4003A2A3F2A36B8E9EF16F0EBEF16F01AEF7D
:102DD40016F03F501A24D96E000E1B20DA6E700EC6
:102DE400DE18D8B4F8EF16F0FAEF16F013EF17F078
:102DF4003F501A24D96E000E1B20DA6E500EDE18D6
:102E0400D8B407EF17F009EF17F013EF17F0000E1F
:102E14001A6E000E1B6E000E1C6E000E1D6EFEEF71
:102E24001BF03F2A3F501A24D96E000E1B20DA6E85
:102E34002B0EDE18D8A421EF17F023EF17F026EF9E
:102E440017F03F2A37EF17F03F501A24D96E000EBF
:102E54001B20DA6E2D0EDE18D8A433EF17F035EFF1
:102E640017F037EF17F036863F2A3F501A26000E28
:102E74001B22000E3F6E40EF17F03F2A3F501A24EA
:102E8400D96E000E1B20DA6E300EDE18D8B44DEF6A
:102E940017F04FEF17F03FEF17F0000E3A6E000EE9
:102EA400396E81EF17F03F50D8B45BEF17F05DEF48
:102EB40017F06BEF17F039C501F53AC502F5000EAE
:102EC400046E0A0E036E88EC29F001C539F502C5BB
:102ED4003AF5D00E1E6EFF0E1F6E3F501A24D96EA7
:102EE400000E1B20DA6EDF50206E216A1E50202651
:102EF4001F5021222050392621503A223F2AD00E39
:102F04001E6EFF0E1F6E3F501A24D96E000E1B203A
:102F1400DA6EDF50206E216A1E5020261F502122B7
:102F240021500AE10A0E205CD8A09BEF17F09EEF17
:102F340017F0010E9FEF17F0000E2A6E2B6A2A502D
:102F44002B10D8A4A8EF17F0AAEF17F055EF17F03D
:102F54003F50D8A4B0EF17F0B2EF17F0BCEF17F062
:102F6400000E1A6E000E1B6E000E1C6E000E1D6EFF
:102F7400FEEF1BF036A6C1EF17F0C3EF17F0C7EF53
:102F840017F0396C3A1ED8B03A2A395037263A50DD
:102F940038221C501D10D8B4D2EF17F0D4EF17F01C
:102FA400E6EF17F03F501A241E6E000E1B201F6E12
:102FB400610070F4D9F4610074F4DAF4610078F417
:102FC400DEF461007CF4DDF43B503C103D103E1017
:102FD400D8A4EFEF17F0F1EF17F0FBEF17F0000EA6
:102FE4001A6E000E1B6E000E1C6E000E1D6EFEEFA0
:102FF4001BF0FF0E3B141E6E000E3C141F6E000EE1
:103004003D14206E000E3E14216E215020101F101E
:1030140009E1810E1E5CD8A012EF18F014EF18F02D
:1030240026EF18F0000E3B26010E3C22000E3D2236
:10303400000E3E2226EF18F0D8903B363C363D3643
:103044003E363706D8A038063EAE2BEF18F02DEFEB
:1030540018F01EEF18F038AE39EF18F0830E375C15
:10306400FF0E3858D8B039EF18F03BEF18F047EF9F
:1030740018F0FF0E386E810E376E000E3B6E000E98
:103084003C6E000E3D6E000E3E6E810E371808E158
:103094003828D8B450EF18F052EF18F05AEF18F05F
:1030A400D8903B363C363D363E363706D8A03806F7
:1030B40038BE66EF18F0385009E1800E375CD8A0AE
:1030C40066EF18F068EF18F074EF18F0000E3B6E1E
:1030D400000E3C6E000E3D6E000E3E6E000E386E0D
:1030E400800E376E090E1E6ED8903E323D323C3251
:1030F4003B321E2E76EF18F0FF0E3B16FF0E3C16E9
:103104007F0E3D16000E3E167F0E37241E6E000EF7
:1031140038201F6EFF0E1E14206E216A226A236A55
:10312400170ED8902036213622362336E82E93EF18
:1031340018F020503B1221503C1222503D122350D3
:103144003E12DDEF1BF036B8AAEF18F0ACEF18F022
:10315400C0EF18F0610068F4D9F461006CF4DAF49B
:103164002E0EDE18D8A4B9EF18F0BBEF18F0C0EF9C
:1031740018F036881A4A1B2AA5EF18F0D00E1E6ED6
:10318400FF0E1F6E610068F4D9F461006CF4DAF488
:10319400DF50206E216A1E5020261F50212221500C
:1031A4000AE10A0E205CD8A0DAEF18F0DDEF18F07F
:1031B400010EDEEF18F0000E2C6E2D6A2C502D102F
:1031C400D8A4E7EF18F0E9EF18F0EBEF18F03BEFB5
:1031D40019F03682090E39183A10D8B4F4EF18F001
:1031E400F6EF18F02EEF19F036A8FBEF18F0FDEF0C
:1031F40018F000EF19F03706D8A03806394A3A2AF1
:103204003BC501F53CC502F53DC503F53EC504F5D6
:103214000A0E056E000E066E000E076E000E086E96
:10322400BBEC27F001C53BF502C53CF503C53DF5F4
:1032340004C53EF5610068F4D9F461006CF4DAF475
:10324400DF501E6ED00E1E261E503B26000E3C2262
:103254003D223E2237EF19F036B833EF19F035EF3F
:1032640019F037EF19F0374A382A1A4A1B2AA5EF02
:1032740018F0000E3A6E000E396E610068F4D9F44D
:1032840061006CF4DAF4650EDE18D8B44CEF19F072
:103294004EEF19F05DEF19F0610068F4D9F46100A4
:1032A4006CF4DAF4450EDE18D8A45BEF19F05DEF88
:1032B40019F05EEF1AF01A4A1B2A610068F4D9F477
:1032C40061006CF4DAF42D0EDE18D8A46CEF19F05A
:1032D4006EEF19F073EF19F036861A4A1B2A84EF41
:1032E40019F0610068F4D9F461006CF4DAF42B0E7F
:1032F400DE18D8A480EF19F082EF19F084EF19F0EA
:103304001A4A1B2A610068F4D9F461006CF4DAF4F7
:10331400300EDE18D8B491EF19F093EF19F082EF64
:1033240019F0D00E1E6EFF0E1F6E610068F4D9F402
:1033340061006CF4DAF4DF50206E216A1E502026FE
:103344001F50212221500AE10A0E205CD8A0ADEFC3
:1033540019F0B0EF19F0010EB1EF19F0000E2E6E56
:103364002F6A2E502F10D8B4BAEF19F0BCEF19F011
:1033740053EF1AF0610068F4D9F461006CF4DAF4E4
:10338400DF501E6ED00E1E261E50396E3A6A1A4A3F
:103394001B2AD00E1E6EFF0E1F6E610068F4D9F456
:1033A40061006CF4DAF4DF50206E216A1E5020268E
:1033B4001F50212221500AE10A0E205CD8A0E5EF1B
:1033C40019F0E8EF19F0010EE9EF19F0000E306E74
:1033D400316A30503110D8B4F2EF19F0F4EF19F02B
:1033E40053EF1AF0610068F4D9F461006CF4DAF474
:1033F400DF501E6ED00E1E2639C501F53AC502F502
:10340400000E046E0A0E036E88EC29F01E5001248F
:10341400396E000E02203A6E1A4A1B2AD00E1E6E16
:10342400FF0E1F6E610068F4D9F461006CF4DAF4E5
:10343400DF50206E216A1E5020261F502122215069
:103444000AE10A0E205CD8A02AEF1AF02DEF1AF038
:10345400010E2EEF1AF0000E326E336A3250331022
:10346400D8B437EF1AF039EF1AF053EF1AF06100BD
:1034740068F4D9F461006CF4DAF4DF501E6ED00EF7
:103484001E2639C501F53AC502F5000E046E0A0E72
:10349400036E88EC29F01E500124396E000E0220C0
:1034A4003A6E36A658EF1AF05AEF1AF05EEF1AF099
:1034B400396C3A1ED8B03A2A395037263A50382255
:1034C4001C501D10D8B469EF1AF06BEF1AF07EEFA0
:1034D4001AF036A270EF1AF072EF1AF07EEF1AF0BB
:1034E400610070F4D9F4610074F4DAF4610068F4F2
:1034F400DEF461006CF4DDF43BC501F53CC502F576
:103504003DC503F53EC504F5000EE3EC21F001C50D
:103514003BF502C53CF503C53DF504C53EF53BC589
:1035240001F53CC502F53DC503F53EC504F5000EA5
:10353400056E000E066E000E076E000E086E5EEC41
:1035440026F0D8A0A8EF1AF0AAEF1AF0B4EF1AF0F8
:10355400000E1A6E000E1B6E000E1C6E000E1D6E09
:10356400FEEF1BF038BEBBEF1AF0B9EF1AF049EFCB
:103574001BF0376C381ED8B0382ADFEF1AF03BC581
:1035840001F53CC502F53DC503F53EC504F5F90E4C
:10359400056E020E066E150E076E500E086E26ECB2
:1035A4001EF001C53BF502C53CF503C53DF504C558
:1035B4003EF5F60E3726FF0E382238BEEDEF1AF030
:1035C400385007E10A0E375CD8B0EBEF1AF0EDEF94
:1035D4001AF0C1EF1AF00CEF1BF03BC501F53CC526
:1035E40002F53DC503F53EC504F5000E056E000E5B
:1035F400066E200E076E410E086E26EC1EF001C505
:103604003BF502C53CF503C53DF504C53EF537065B
:10361400D8A0380637503810D8A413EF1BF015EF94
:103624001BF0EFEF1AF03BC501F53CC502F53DC5B3
:1036340003F53EC504F5000E056E000E066E800E01
:10364400076E000E086EDBEC23F0D8B02CEF1BF0F5
:103654002EEF1BF0DDEF1BF036A033EF1BF035EF40
:103664001BF03FEF1BF0000E1A6E000E1B6E800E57
:103674001C6E800E1D6EFEEF1BF0000E1A6E000E07
:103684001B6E800E1C6E000E1D6EFEEF1BF038BE0E
:1036940054EF1BF0385008E13704D8A054EF1BF066
:1036A40056EF1BF0DDEF1BF076EF1BF03BC501F589
:1036B4003CC502F53DC503F53EC504F5F90E056E9E
:1036C400020E066E150E076E500E086EFFEC1BF010
:1036D40001C53BF502C53CF503C53DF504C53EF502
:1036E400F60E3726FF0E3822385007E10A0E375CF3
:1036F400D8B07FEF1BF081EF1BF058EF1BF0A0EF69
:103704001BF03BC501F53CC502F53DC503F53EC5BF
:1037140004F5000E056E000E066E200E076E410EB7
:10372400086EFFEC1BF001C53BF502C53CF503C573
:103734003DF504C53EF53706D8A038063750381095
:10374400D8A4A7EF1BF0A9EF1BF083EF1BF0FF0E2B
:10375400016EFF0E026E7F0E036E7F0E046E3BC57C
:1037640005F53CC506F53DC507F53EC508F5DBEC9A
:1037740023F0D8B0C0EF1BF0C2EF1BF0DDEF1BF05D
:1037840036A0C7EF1BF0C9EF1BF0D3EF1BF0000E00
:103794001A6E000E1B6E800E1C6E800E1D6EFEEFE8
:1037A4001BF0000E1A6E000E1B6E800E1C6E000EB7
:1037B4001D6EFEEF1BF036A0E2EF1BF0E4EF1BF0F2
:1037C400F6EF1BF03BC501F53CC502F53DC503F51D
:1037D4003EC504F53DEC29F001C53BF502C53CF5B9
:1037E40003C53DF504C53EF53BC51AF53CC51BF5BF
:1037F4003DC51CF53EC51DF512000450800B0D6E31
:1038040004500424136E03AE0AEF1CF00CEF1CF0FA
:103814000DEF1CF013801350D8B413EF1CF015EF08
:103824001CF028EF1CF01328D8A41BEF1CF01DEF8C
:103834001CF025EF1CF0000E016E000E026E000E4F
:10384400036E000E046E038E30EF1CF0000E016E4A
:10385400000E026E000E036E000E046E0850800B04
:103864000D1A08500824126E07AE3BEF1CF03DEF12
:103874001CF03EEF1CF012801250D8B444EF1CF040
:1038840046EF1CF059EF1CF01228D8A44CEF1CF0A2
:103894004EEF1CF056EF1CF0000E056E000E066E87
:1038A400000E076E000E086E078E61EF1CF0000E0E
:1038B400056E000E066E000E076E000E086E1250A6
:1038C400D8B467EF1CF069EF1CF071EF1CF01350D3
:1038D400D8A46FEF1CF071EF1CF07BEF1CF0000E0E
:1038E400016E000E026E000E036E000E046E25EFD4
:1038F4001EF0075001026100CCF318F56100D0F30B
:1039040019F518500E6E0F6A106A116A1950146E68
:10391400156A166A176A065002026100CCF318F59C
:103924006100D0F319F518500E26000E0F22102254
:10393400112219501426000E1522162217220550A2
:1039440003026100CCF318F56100D0F319F51850A7
:103954000E26000E0F221022112219501426000EDA
:1039640015221622172210C511F50FC510F50EC524
:103974000FF50E6A055002026100CCF318F56100E0
:10398400D0F319F518500E2619500F22000E1022EC
:10399400000E1122065001026100CCF318F56100FB
:1039A400D0F319F518500E2619500F22000E1022CC
:1039B400000E112210C511F50FC510F50EC50FF537
:1039C4000E6A055001026100CCF318F56100D0F3D2
:1039D40019F518500E2619500F22000E1022000E51
:1039E4001122075002026100CCF318F56100D0F3F4
:1039F40019F51850142619501522000E1622000E1F
:103A04001722065003026100CCF318F56100D0F3CD
:103A140019F51850142619501522000E1622000EFE
:103A24001722075003026100CCF318F56100D0F3AC
:103A340019F51850096E19500A6E0B6A0C6A0BC5F9
:103A44000CF50AC50BF509C50AF5096A09501426CF
:103A54000A5015220B5016220C5017220EC509F5D8
:103A64000FC50AF510C50BF511C50CF5190E40EF7D
:103A74001DF0D8900C320B320A320932E82E3BEF9B
:103A84001DF0095014260A5015220B5016220C5012
:103A9400172210C511F50FC510F50EC50FF50E6AE6
:103AA400125013C509F50A6A0926000E0A22820E6D
:103AB4000924186EFF0E0A20196E76EF1DF0D890B7
:103AC400143615361636173611AE6BEF1DF06DEF42
:103AD4001DF06EEF1DF01480D8900E360F361036A0
:103AE40011361806D8A0190616AE7BEF1DF07DEF2F
:103AF4001DF061EF1DF0000E126E11AE84EF1DF08B
:103B040086EF1DF0AAEF1DF0FF0E0E14096EFF0ED6
:103B14000F140A6EFF0E10140B6E7F0E11140C6E30
:103B240009500A100B100C10D8B49BEF1DF09DEF38
:103B34001DF0A1EF1DF0010E126EAAEF1DF014A0EE
:103B4400A6EF1DF0A8EF1DF0AAEF1DF09DEF1DF0EC
:103B54001250D8B4B0EF1DF0B2EF1DF0D6EF1DF047
:103B6400010E1426000E15221622172217A0BDEFEF
:103B74001DF0BFEF1DF0D6EF1DF014C509F515C5F6
:103B84000AF516C50BF517C50CF50C340C320B32BF
:103B94000A32093209C514F50AC515F50BC516F51F
:103BA4000CC517F5184A192A19BEE1EF1DF0195072
:103BB40008E11828D8A0E1EF1DF0E3EF1DF0EDEFC8
:103BC4001DF0000E146E000E156E800E166E7F0E24
:103BD400176E1BEF1EF019BEFAEF1DF0195006E127
:103BE4001804D8B0F8EF1DF0FAEF1DF006EF1EF040
:103BF400000E146E000E156E000E166E000E176E7B
:103C0400000E0D6E1BEF1EF018C513F5FF0E1416F3
:103C1400FF0E15167F0E1616000E171613A015EFBD
:103C24001EF017EF1EF018EF1EF0168ED89013300A
:103C3400176E0D50171214C501F515C502F516C5FA
:103C440003F517C504F512000450800B116E0450DF
:103C54000424186E03AE31EF1EF033EF1EF034EF80
:103C64001EF018801850D8B43AEF1EF03CEF1EF046
:103C740051EF1EF01828D8A442EF1EF044EF1EF0B6
:103C84004CEF1EF0000E016E000E026E000E036E6D
:103C9400000E046E038E000E046E59EF1EF0000E2B
:103CA400016E000E026E000E036E000E046E0850CC
:103CB400800B111A08500824196E07AE64EF1EF029
:103CC40066EF1EF067EF1EF019801950D8B46DEF3F
:103CD4001EF06FEF1EF084EF1EF01928D8A475EFC4
:103CE4001EF077EF1EF07FEF1EF0000E056E000E43
:103CF400066E000E076E000E086E078E000E086E2C
:103D04008CEF1EF0000E056E000E066E000E076EA0
:103D1400000E086E0550061007100810D8A495EF81
:103D24001EF097EF1EF0AFEF1EF0000E016E000EB6
:103D3400026E000E036E000E046E800E03127F0EE0
:103D440004121150041201C501F502C502F503C5A0
:103D540003F504C504F5F2EF1FF01850D8A4B5EF2D
:103D64001EF0B7EF1EF0C1EF1EF0000E016E000E44
:103D7400026E000E036E000E046EF2EF1FF0195077
:103D840018C509F50A6A095E000E0A5A7F0E09244D
:103D9400126E000E0A20136E01C50DF502C50EF554
:103DA40003C50FF504C510F5000E016E000E026E7A
:103DB400000E036E000E046E000E146E000E156EDF
:103DC400000E166E000E176E000E196E22EF1FF015
:103DD4001950D8B4F0EF1EF0F2EF1EF009EF1FF007
:103DE400D8900D360E360F361036D890013602367E
:103DF4000336043617AE01EF1FF003EF1FF004EF94
:103E04001FF00180D8901436153616361736055033
:103E14000D5C06500E5807500F5808501058D8A083
:103E240016EF1FF018EF1FF021EF1FF0178C05504D
:103E34000D5E06500E5A07500F5A0850105A192A90
:103E4400190E196428EF1FF02AEF1FF0EAEF1EF095
:103E54000D500E100F101010D8B433EF1FF035EFC3
:103E64001FF04DEF1FF014804DEF1FF0D890013676
:103E740002360336043617AE42EF1FF044EF1FF04C
:103E840045EF1FF00180D8901436153616361736D4
:103E94001206D8A0130603AE52EF1FF054EF1FF022
:103EA40038EF1FF0000E196E17AE5BEF1FF05DEFD9
:103EB4001FF081EF1FF0FF0E1414096EFF0E15148E
:103EC4000A6EFF0E16140B6E7F0E17140C6E09503B
:103ED4000A100B100C10D8B472EF1FF074EF1FF01F
:103EE40078EF1FF0010E196E81EF1FF001A07DEF36
:103EF4001FF07FEF1FF081EF1FF074EF1FF01950D8
:103F0400D8B487EF1FF089EF1FF0ADEF1FF0010E5B
:103F14000126000E02220322042204A094EF1FF0C3
:103F240096EF1FF0ADEF1FF001C509F502C50AF5C4
:103F340003C50BF504C50CF50C340C320B320A32F4
:103F4400093209C501F50AC502F50BC503F50CC50F
:103F540004F5124A132A13BEB8EF1FF0135008E1F8
:103F64001228D8A0B8EF1FF0BAEF1FF0C5EF1FF06A
:103F7400000E136E1268000E016E000E026E000E2B
:103F8400036E000E046E13BED2EF1FF0135006E151
:103F94001204D8B0D0EF1FF0D2EF1FF0E0EF1FF003
:103FA400000E136E000E126E000E016E000E026EF5
:103FB400000E036E000E046E000E116E12C518F58D
:103FC40018A0E7EF1FF0E9EF1FF0ECEF1FF0038EEE
:103FD400EDEF1FF0039ED8901830046EA3EF1EF08F
:103FE40012000501D6BFF9EF1FF0FBEF1FF0FCEF45
:103FF4001FF0D793D6BF09EF20F0D65106E1D505BF
:10400400D8B007EF20F009EF20F00FEF20F0000EFA
:10401400906F010E8F6F13EF20F0D5C58FF5D6C5C5
:1040240090F5D3C591F5D4C592F57FC593F580C5B8
:1040340094F581C595F582C596F583C597F584C534
:1040440098F585C599F586C59AF5000E9C6F1F0EE7
:104054009B6F000E0601836FA7EF20F09B07D8A08B
:104064009C07640E9B25D96E060E9C21DA6E93C5BF
:1040740060F594C561F595C562F596C563F597C578
:1040840064F598C565F599C566F59AC567F50A0E90
:10409400686F000E696F000E6A6F000E6B6F000E82
:1040A4006C6F000E6D6F000E6E6F000E6F6FD6ECAE
:1040B40024F060C587F561C588F562C589F563C5D7
:1040C4008AF564C58BF565C58CF566C58DF567C540
:1040D4008EF505018751300FDF6E8F07D8A090074A
:1040E4009107D8A0920793C560F594C561F595C56D
:1040F40062F596C563F597C564F598C565F599C5E8
:1041040066F59AC567F50A0E686F000E696F000EB2
:104114006A6F000E6B6F000E6C6F000E6D6F000EF9
:104124006E6F000E6F6F5DEC24F060C593F561C592
:1041340094F562C595F563C596F564C597F565C5AF
:1041440098F566C599F567C59AF505019B519C11CB
:10415400D8B4AFEF20F0B1EF20F0E1EF20F09351AD
:104164009411951196119711981199119A11D8A437
:10417400BEEF20F0C0EF20F030EF20F090BFCDEF85
:1041840020F0905106E18F05D8B0CBEF20F0CDEFB1
:1041940020F030EF20F092BFD8EF20F0925108E1E8
:1041A4009105D8A0D8EF20F0DAEF20F0E1EF20F06D
:1041B400D7B3DFEF20F0E1EF20F030EF20F07DC542
:1041C40072F57EC573F5640E9B25746F060E9C21F3
:1041D400756F91C576F592C577F53FEC25F072C5FC
:1041E4007DF573C57EF5120061007CF6D9F461009B
:1041F40080F6DAF4DEC4F6F4DDC4F7F4000EF86EEB
:104204000800F550250AD8A40AEF21F00CEF21F09C
:10421400C0EF21F061007CF6D9F4610080F6DAF495
:10422400DE2A000EDD22000E0501D46F000ED36FCE
:10423400D3C5D7F5D4C5D8F5D569D66961007CF660
:10424400D9F4610080F6DAF4DEC4F6F4DDC4F7F4E0
:10425400000EF86E0800F550750AD8A434EF21F06A
:1042640036EF21F081EF21F061007CF6D9F4610092
:1042740080F6DAF4DE2A000EDD22610084F6D9F439
:10428400610088F6DAF461007CF3A3F5020EDE2601
:1042940061007CF3A4F5000EDD2261008CF6D9F4F4
:1042A400610090F6DAF4610078F3A5F5610074F327
:1042B400A6F5A5C5A7F5A6C5A8F5A96BAA6BAB6B12
:1042C400AC6BAD6BAE6B9DC57DF59EC57EF5A7C58C
:1042D4007FF5A8C580F5A9C581F5AAC582F5ABC54A
:1042E40083F5ACC584F5ADC585F5AEC586F5F3ECAF
:1042F4001FF07DC59DF57EC59EF5E2EF21F06100BE
:104304007CF6D9F4610080F6DAF4DEC4F6F4DDC498
:10431400F7F4000EF86E0800F550250AD8A495EFBE
:1043240021F097EF21F0B1EF21F061007CF6D9F490
:10433400610080F6DAF4DE2A000EDD22000E636FDF
:10434400250E626F9DC564F59EC565F502EC27F0E8
:10435400000E05019E6F010E9D6FE2EF21F06100DA
:104364007CF6D9F4610080F6DAF4DE2A000EDD2250
:10437400000E9E6F000E9D6FE2EF21F061007CF64F
:10438400D9F4610080F6DAF4DEC4F6F4DDC4F7F49F
:10439400000EF86E0800F5500501626F636B9DC551
:1043A40064F59EC565F502EC27F061007CF6D9F44E
:1043B400610080F6DAF4DE2A000EDD22AAEF21F095
:1043C4001200096E0950D8B4EAEF21F0ECEF21F0A5
:1043D4000EEF22F004BEF3EF21F0F1EF21F00EEF27
:1043E40022F001C505F502C506F503C507F504C5A8
:1043F40008F5051E061E071E081E052A000E0622C5
:104404000722082205C50BF506C50CF507C50DF5F1
:1044140008C50EF516EF22F001C50BF502C50CF523
:1044240003C50DF504C50EF5015002100310041068
:10443400D8A41FEF22F021EF22F02BEF22F0000E80
:10444400016E000E026E000E036E000E046EBCEFD1
:1044540022F0960E0A6E35EF22F00A2AD8900E3218
:104464000D320C320B32000E0B14056E000E0C14C0
:10447400066E000E0D14076EFE0E0E14086E055027
:10448400061007100810D8A44AEF22F04CEF22F0CF
:104494002FEF22F05AEF22F00A2A010E0B26000E0B
:1044A4000C220D220E22D8900E320D320C320B3219
:1044B400000E0B14056E000E0C14066E000E0D1487
:1044C400076EFF0E0E14086E055006100710081034
:1044D400D8A46FEF22F071EF22F04EEF22F079EFC3
:1044E40022F00A06D8900B360C360D360E360DBE69
:1044F4007EEF22F080EF22F088EF22F0020E0A60B5
:1045040086EF22F088EF22F073EF22F00AB08DEFED
:1045140022F08FEF22F090EF22F00D9ED8900A3215
:104524000AC505F5066A076A086A05C508F5076A33
:10453400066A056A05500B1206500C1207500D123C
:1045440008500E120950D8B4AAEF22F0ACEF22F0B2
:10455400B4EF22F004BEB3EF22F0B1EF22F0B4EFD7
:1045640022F00E8E0BC501F50CC502F50DC503F541
:104574000EC504F512006100D8F34EF56100DCF3BA
:104584004FF56100E0F350F56100D4F351F5A2A0BA
:10459400CEEF22F0D0EF22F04BEF23F0B2A0D5EF14
:1045A40022F0D7EF22F04BEF23F002D8E4EF22F011
:1045B4000500FA6E5950FD6E5A50FE6E5B50FF6E48
:1045C400FA501200600084FA56F5610E5618D8A409
:1045D400EEEF22F0F0EF22F0F3EF22F0C3844BEF82
:1045E40023F0620E5618D8A4FAEF22F0FCEF22F062
:1045F400FFEF22F0C3944BEF23F0630E5618D8A4B8
:1046040006EF23F008EF23F00BEF23F0C3864BEF04
:1046140023F0640E5618D8A412EF23F014EF23F0FD
:1046240017EF23F0C3964BEF23F0780E5618D8A457
:104634001EEF23F020EF23F040EF23F0000E406E36
:10464400060E416EB1EC29F040C544F541C545F56F
:1046540042C546F543C547F558EC23F044C552F529
:1046640045C553F552C501F553C502F559EC29F07A
:10467400000E556E000E546E4BEF23F0000E5424C2
:10468400D96E060E5520DA6E610058F5DFF4544AEF
:10469400552A610044F5F5F4610040F5F8F4610031
:1046A4003CF5F7F4610038F5F6F41100463447346C
:1046B4004D6E4D50D8A461EF23F063EF23F06DEFFE
:1046C40023F0000E446E000E456E000E466E000E82
:1046D400476EDAEF23F044C548F545C549F546C5AC
:1046E4004AF547C54BF5200E7DEF23F0D8904B32A9
:1046F4004A3249324832E82E78EF23F048504C6E63
:10470400468EFF0E4416FF0E4516FF0E4616000E8B
:104714004716960E4D5E4DBE94EF23F092EF23F0B4
:10472400AAEF23F04D50800A970FD8B09CEF23F0E6
:104734009EEF23F0A0EF23F063EF23F0D8904732ED
:104744004632453244324D3EA0EF23F0C2EF23F00F
:104754001F0E4D64B0EF23F0B2EF23F0BAEF23F055
:1047640063EF23F0D89044364536463647364D0637
:104774004D50D8A4C0EF23F0C2EF23F0B4EF23F0E0
:104784004C50D8B4C8EF23F0CAEF23F0D2EF23F093
:10479400471E461E451E446C000E452246224722F3
:1047A40044C544F545C545F546C546F547C547F5F1
:1047B4001200000E0114096E000E02140A6E800E1F
:1047C40003140B6E7F0E04140C6E09500A100B10A8
:1047D4000C10D8A4F0EF23F0F2EF23F0FAEF23F05B
:1047E400000E016E000E026E000E036E000E046ECB
:1047F400000E0514096E000E06140A6E800E0714CE
:104804000B6E7F0E08140C6E09500A100B100C105E
:10481400D8A40FEF24F011EF24F019EF24F0000EC8
:10482400056E000E066E000E076E000E086E04AED6
:104834001EEF24F020EF24F029EF24F0016C021E77
:10484400D8B0022A031ED8B0032A800E045608AE3C
:104854002EEF24F030EF24F039EF24F0056C061E1F
:10486400D8B0062A071ED8B0072A800E0856000EB4
:10487400011A000E021A000E031A800E041A000E0A
:10488400051A000E061A000E071A800E081A0550A3
:10489400015C065002580750035808500458D8B019
:1048A40056EF24F058EF24F05BEF24F0D8905CEF3F
:1048B40024F0D880120021EE70F1070EDE6AE806BB
:1048C400FDE20501685169116A116B116C116D11DA
:1048D4006E116F11D8B471EF24F073EF24F0C5EFAB
:1048E40024F0010E786F81EF24F0D890683769378F
:1048F4006A376B376C376D376E376F37782B6FAF1E
:1049040086EF24F088EF24F077EF24F0D890703706
:10491400713772377337743775377637773768512D
:10492400605D695161596A5162596B5163596C51A7
:1049340064596D5165596E5166596F516759D8A0C4
:10494400A6EF24F0A8EF24F0B9EF24F06851605FDB
:104954006951615B6A51625B6B51635B6C51645B6F
:104964006D51655B6E51665B6F51675B7081D8906A
:104974006F336E336D336C336B336A33693368333F
:10498400782F88EF24F070C560F571C561F572C5A4
:1049940062F573C563F574C564F575C565F576C5CB
:1049A40066F577C567F512000501685169116A114A
:1049B4006B116C116D116E116F11D8B4E4EF24F00A
:1049C400E6EF24F02EEF25F0010E706FF4EF24F0E3
:1049D400D890683769376A376B376C376D376E37FD
:1049E4006F37702B6FAFF9EF24F0FBEF24F0EAEF91
:1049F40024F06851605D695161596A5162596B5183
:104A040063596C5164596D5165596E5166596F51B2
:104A14006759D8A010EF25F012EF25F022EF25F00A
:104A24006851605F6951615B6A51625B6B51635BA2
:104A34006C51645B6D51655B6E51665B6F51675B76
:104A4400D8906F336E336D336C336B336A336933A1
:104A54006833702FFBEF24F060C560F561C561F524
:104A640062C562F563C563F564C564F565C565F53E
:104A740066C566F567C567F512000501D7A145EF60
:104A840025F047EF25F051EF25F074C56BF575C59A
:104A94006CF572C56DF573C56EF5A6EC28F00501CD
:104AA40077BF57EF25F059EF25F05FEF25F076C576
:104AB4007BF577C57CF563EF25F0000E7C6F000E67
:104AC4007B6F000E7A6F000E796F76EF25F0000E83
:104AD400636F200E626F72C564F573C565F502ECF1
:104AE40027F00501794B7A2B7B51795D7A51800A45
:104AF400786F7C51800A7859D8A083EF25F085EF30
:104B040025F069EF25F0D7B18AEF25F08CEF25F079
:104B140096EF25F074C56BF575C56CF572C56DF52A
:104B240073C56EF5A6EC28F074C560F575C561F51E
:104B3400CAEC28F005017B516025726F7C5161211C
:104B4400736F1200C10E0501DA25D96EDA6A050EFB
:104B5400DA22000EDF6E0201B2A7B3EF25F0B5EF43
:104B640025F0CAEF25F0C10E0501DA25D96EDA6AFF
:104B7400050EDA22DF8202D8CAEF25F00500FA6EAC
:104B8400E151FD6EE251FE6EE351FF6EFA501200E8
:104B94000201B2A3D0EF25F0D2EF25F0E7EF25F024
:104BA400C10E0501DA25D96EDA6A050EDA22DF8430
:104BB40002D8E7EF25F00500FA6EDE51FD6EDF51F5
:104BC400FE6EE051FF6EFA501200C10E0501DA25A7
:104BD400D96EDA6A050EDA22DF50D8B4F4EF25F084
:104BE400F6EF25F005EF26F002D803EF26F00500D6
:104BF400FA6EDB51FD6EDC51FE6EDD51FF6EFA5034
:104C0400120007EF26F072EC29F01200000EC26EBB
:104C1400000EC16E000EBE6E000EC36E000EBF6E9F
:104C2400000EC06E070ECA6E720ECB6EC668C768E1
:104C3400C868C968040118691069EF0E086F070E87
:104C4400206FF10E286F0069000E196F000E296F96
:104C5400000E216F100E096F000E016F000E116F10
:104C6400000E0201896F000E886F000E876F000E20
:104C7400866F000E0401226F000E2A6F000E026F71
:104C8400000E0A6F000E126F000E1A6F03690B6993
:104C940013691B69070E236F2B6904690C69146976
:104CA4001C690F0E246F2C69150E0201306F200E43
:104CB400296F290E726F1200000E0114096E000E86
:104CC40002140A6E800E03140B6E7F0E04140C6E15
:104CD40009500A100B100C10D8A473EF26F075EFCE
:104CE40026F07DEF26F0000E016E000E026E000E1F
:104CF400036E000E046E000E0514096E000E0614F9
:104D04000A6E800E07140B6E7F0E08140C6E095089
:104D14000A100B100C10D8A492EF26F094EF26F092
:104D24009CEF26F0000E056E000E066E000E076E58
:104D3400000E086E055001180FE1065002180CE130
:104D44000750031809E108500418D8B4ACEF26F052
:104D5400AEEF26F0B1EF26F0D890B2EF26F0D8806F
:104D64001200A290480E0501606F4B0E616F000E99
:104D7400626F4DEC2AF0000E0201A56F000EA66FC3
:104D8400000EA76F000EA86F000EA96F000EAA6F89
:104D9400B00EAB6F800EAC6F000EAD6F8A0EAE6FAF
:104DA400000EAF6F000EB06F000EB16F000EB26F49
:104DB400000EB36FDE0E0501606F540E616F000EBE
:104DC400626F5BEC2AF0DC0E0501606F540E616FBC
:104DD400000E626F54EC2AF0D20E0501606F540E7F
:104DE400616F000E626F62EC2AF0000E0501D96F4C
:104DF400000EDA6F000E586E000E576EA28012007D
:104E0400050164516511D8B40AEF27F00CEF27F0BF
:104E140015EF27F064516511D8A413EF27F015EFAF
:104E240027F01AEF27F0625146EC2AF04DEF27F0F5
:104E340020EE04F06451D9266551DA22DE50DE10EA
:104E4400D8B427EF27F029EF27F044EF27F020EE1E
:104E540004F06451D9266551DA2210EE02F064514F
:104E6400E1266551E222DE50E65CE650800A6A6F74
:104E7400DE50800A6A59D8B042EF27F044EF27F099
:104E84004DEF27F020EE02F06451D9266551DA2265
:104E9400DE2A000EDD221200010E076ED00E036E14
:104EA400FF0E046E01C505F502C506F5035005267F
:104EB40004500622065009E10A0E055CD8A065EFED
:104EC40027F067EF27F082EF27F09F0E036EFF0EA7
:104ED400046E200E0110056E000E0210066E0350C3
:104EE400052604500622065009E1060E055CD8A0EA
:104EF4007EEF27F080EF27F082EF27F0000E076E99
:104F040007C501F5026A1200B1C5B5F5B2C5B6F51B
:104F1400000E0501D26F000ED16FA4EF27F0AFC5CC
:104F24009DF5B0C59EF5B50E9F6F050EA06FB3C578
:104F3400A1F5B4C5A2F5F6EC20F005019D51D127E9
:104F44009E51D2236100D4F6F6F46100D8F6F7F44A
:104F5400000EF86E0800F5500009D8A4B4EF27F04D
:104F6400B6EF27F091EF27F0D1C5AFF5D2C5B0F574
:104F74001200000E096E000E0A6E000E0B6E000E7B
:104F84000C6E01A0C8EF27F0CAEF27F0D2EF27F08C
:104F94000550092606500A2207500B2208500C22FD
:104FA400D8900536063607360836D89004320332D0
:104FB400023201320150021003100410D8A4E5EFAC
:104FC40027F0E7EF27F0C3EF27F009C501F50AC57D
:104FD40002F50BC503F50CC504F51200D6EC29F057
:104FE400D68E220E3DEC2AF00301F3B1FCEF27F03C
:104FF400FEEF27F0F6EF27F0F8EC29F060C5BFF5D7
:1050040061C5C0F51F0E0501B76F260EB86FBFC589
:10501400B9F5C0C5BAF59DEC29F0210E0501BE6FA6
:10502400780EBD6F980EE82EFED7BD2FFCD7BE2F8D
:10503400FAD700F0F3EF27F00DEF00F09F0E096EA2
:10504400FF0E0A6E07C50BF508C50CF509500B26B3
:105054000A500C220C500AE11A0E0B5CD8A035EF52
:1050640028F038EF28F0010E39EF28F0000E0D6E0D
:105074000E6A0D500E10D8B442EF28F044EF28F019
:105084004AEF28F05F0E0714076E086A4EEF28F007
:1050940007C507F508C508F51200000E0301D96F0E
:1050A400000EDA6F000EDB6F000EDC6F000EDF6F98
:1050B400000EE06F000EE56F000EE76F000EEC6F60
:1050C400000EEE6F000EEF6F000EF06F000EF16F2A
:1050D400000EF26F000EF46F100EF56F000EF66FF7
:1050E400000EF76F000EF86F000EF96F1F0EFA6FC7
:1050F400840EF36F1200010E076E200E01180210C9
:10510400D8B487EF28F089EF28F0A2EF28F0F70E43
:10511400036EFF0E046E01C505F502C506F50350C6
:10512400052604500622065009E1050E055CD8A0A8
:105134009EEF28F0A0EF28F0A2EF28F0000E076EF3
:1051440007C501F5026A1200000E0501716F000E19
:10515400706FB9EF28F06FC562F5636B6DC564F5C8
:105164006EC565F502EC27F00501704B712B70518B
:105174006B25D96E71516C21DA6EDF506F6F6F51F0
:10518400D8A4C7EF28F0C9EF28F0ADEF28F012003B
:1051940060C562F561C563F5D3EF28F00501604B86
:1051A400612B610080F5D9F4610084F5DAF4DF50F5
:1051B400D8A4DFEF28F0E1EF28F0D0EF28F00501C4
:1051C4006251605D606F63516159616F120001EE5D
:1051D40000F2840EEE6AE806FDE101EEC1F11A0E5A
:1051E400EE6AE806FDE101EE52F1070EEE6AE8060A
:1051F400FDE10401080E5D6F000E5E6F000E5F6F2F
:105204000001F0EF27F09F0E036EFF0E046E01C540
:1052140005F502C506F5035005260450062206507E
:105224000AE11A0E055CD8A01AEF29F01DEF29F047
:10523400010E1EEF29F0000E016E026A1200D00E5C
:10524400036EFF0E046E01C505F502C506F5035095
:1052540005260450062206500AE10A0E055CD8A071
:1052640036EF29F039EF29F0010E3AEF29F0000E5C
:10527400016E026A12000150021003100410D8B427
:1052840046EF29F048EF29F050EF29F0000E011AFB
:10529400000E021A000E031A800E041A01C501F54D
:1052A40002C502F503C503F504C504F51200FF0E9B
:1052B4000116030E0216030142A963EF29F065EFFC
:1052C40029F06CEF29F0060ED89001360236E82E4C
:1052D40066EF29F00250416F610004F440F31200BC
:1052E400C90E0501DA25D96EDA6A050EDA22A1C2E1
:1052F400DFF4DA2B070EDA6582EF29F084EF29F068
:1053040086EF29F0000EDA6F572A120001500302CB
:105314006100CCF305F56100D0F306F501500402F9
:10532400F350062602500302F350062605C501F584
:1053340006C502F51200B90E0501BB6F050EBC6F60
:10534400000EAF6F000EB06FB7C5B1F5B8C5B2F5BA
:10535400BB0EB36F050EB46F86EC27F0120040C588
:105364001AF541C51BF5000E1C6E000E1D6E12ECE5
:1053740013F01AC540F51BC541F51CC542F51DC502
:1053840043F51200000E0001606F000E616F000E05
:10539400636F000E646F000E656F000E666F000E83
:1053A400676F000E686F12006CEC2AF0C4EC29F0F1
:1053B40008EC26F016EC2AF031EC2AF04FEC28F039
:1053C40008EC2AF0B3EC26F01200FF0E056EFF0E77
:1053D400066EFF0E076E7F0E086E05C501F506C545
:1053E40002F507C503F508C504F512000301EB51E6
:1053F4000501636F626B0301EA5105016225606F69
:105404000301000E05016321616F1200010E030107
:10541400266F000E256F000E276F2369000E226F82
:10542400B196800E246F1200600E0001AD6F000E65
:10543400AF6F000EB36F080EB16F000EB06F000EA9
:10544400AC6F12000501606FB2A22BEF2AF02DEFB2
:105454002AF026EF2AF0610080F5A3F212008C0EE8
:105464000301426F000E416F090E406F4C51FC0B5B
:1054740001094C6F12000501606F610080F5ECF3C7
:105484000301F38FF38112000501616F050161517E
:1054940024EC2AF0120060C559F561C55AF562C5BD
:1054A4005BF5120060C5DEF561C5DFF562C5E0F5A8
:1054B400120060C5E1F561C5E2F562C5E3F51200CD
:1054C40060C5DBF561C5DCF562C5DDF5120072EC83
:0C54D40029F01200D69A120012001200FB
:020000040020DA
:10000000FF0FFF0FFF0FFF0FFF0FFF0FFF0FFF0F80
:10001000FF0FFF0FFF0FFF0FFF0FFF0FFF0FFF0F70
:020000040030CA
:0A0000008CFFF7FF9FFFFFFFFFFFDB
:00000001FF
